{
  "_format": "hh-sol-artifact-1",
  "contractName": "MyTokenMarket",
  "sourceName": "contracts/MyTokenMarket.sol",
  "abi": [
    {
      "inputs": [
        {
          "internalType": "address",
          "name": "_token",
          "type": "address"
        },
        {
          "internalType": "address",
          "name": "_router",
          "type": "address"
        },
        {
          "internalType": "address",
          "name": "_weth",
          "type": "address"
        },
        {
          "internalType": "address",
          "name": "_masterChef",
          "type": "address"
        }
      ],
      "stateMutability": "nonpayable",
      "type": "constructor"
    },
    {
      "inputs": [],
      "name": "buyToken",
      "outputs": [],
      "stateMutability": "payable",
      "type": "function"
    },
    {
      "inputs": [],
      "name": "masterChef",
      "outputs": [
        {
          "internalType": "address",
          "name": "",
          "type": "address"
        }
      ],
      "stateMutability": "view",
      "type": "function"
    },
    {
      "inputs": [],
      "name": "myToken",
      "outputs": [
        {
          "internalType": "address",
          "name": "",
          "type": "address"
        }
      ],
      "stateMutability": "view",
      "type": "function"
    },
    {
      "inputs": [],
      "name": "router",
      "outputs": [
        {
          "internalType": "address",
          "name": "",
          "type": "address"
        }
      ],
      "stateMutability": "view",
      "type": "function"
    },
    {
      "inputs": [],
      "name": "weth",
      "outputs": [
        {
          "internalType": "address",
          "name": "",
          "type": "address"
        }
      ],
      "stateMutability": "view",
      "type": "function"
    },
    {
      "inputs": [
        {
          "internalType": "uint256",
          "name": "_amounts",
          "type": "uint256"
        }
      ],
      "name": "withdraw",
      "outputs": [],
      "stateMutability": "nonpayable",
      "type": "function"
    }
  ],
  "bytecode": "0x60806040523480156200001157600080fd5b5060405162000ee338038062000ee3833981810160405281019062000037919062000286565b836000806101000a81548173ffffffffffffffffffffffffffffffffffffffff021916908373ffffffffffffffffffffffffffffffffffffffff16021790555082600160006101000a81548173ffffffffffffffffffffffffffffffffffffffff021916908373ffffffffffffffffffffffffffffffffffffffff16021790555081600260006101000a81548173ffffffffffffffffffffffffffffffffffffffff021916908373ffffffffffffffffffffffffffffffffffffffff16021790555080600360006101000a81548173ffffffffffffffffffffffffffffffffffffffff021916908373ffffffffffffffffffffffffffffffffffffffff16021790555060008054906101000a900473ffffffffffffffffffffffffffffffffffffffff1673ffffffffffffffffffffffffffffffffffffffff1663095ea7b3600160009054906101000a900473ffffffffffffffffffffffffffffffffffffffff166000196040518363ffffffff1660e01b8152600401620001bb92919062000324565b602060405180830381600087803b158015620001d657600080fd5b505af1158015620001eb573d6000803e3d6000fd5b505050506040513d601f19601f820116820180604052508101906200021191906200038e565b5050505050620003c0565b600080fd5b600073ffffffffffffffffffffffffffffffffffffffff82169050919050565b60006200024e8262000221565b9050919050565b620002608162000241565b81146200026c57600080fd5b50565b600081519050620002808162000255565b92915050565b60008060008060808587031215620002a357620002a26200021c565b5b6000620002b3878288016200026f565b9450506020620002c6878288016200026f565b9350506040620002d9878288016200026f565b9250506060620002ec878288016200026f565b91505092959194509250565b620003038162000241565b82525050565b6000819050919050565b6200031e8162000309565b82525050565b60006040820190506200033b6000830185620002f8565b6200034a602083018462000313565b9392505050565b60008115159050919050565b620003688162000351565b81146200037457600080fd5b50565b60008151905062000388816200035d565b92915050565b600060208284031215620003a757620003a66200021c565b5b6000620003b78482850162000377565b91505092915050565b610b1380620003d06000396000f3fe6080604052600436106100555760003560e01c80632e1a7d4d1461005a5780633fc8cef314610083578063575a86b2146100ae578063a4821719146100d9578063b8fcf937146100e3578063f887ea401461010e575b600080fd5b34801561006657600080fd5b50610081600480360381019061007c919061061e565b610139565b005b34801561008f57600080fd5b506100986101cc565b6040516100a5919061068c565b60405180910390f35b3480156100ba57600080fd5b506100c36101f2565b6040516100d0919061068c565b60405180910390f35b6100e1610218565b005b3480156100ef57600080fd5b506100f861058a565b604051610105919061068c565b60405180910390f35b34801561011a57600080fd5b506101236105ae565b604051610130919061068c565b60405180910390f35b600360009054906101000a900473ffffffffffffffffffffffffffffffffffffffff1673ffffffffffffffffffffffffffffffffffffffff1663441a3e706000836040518363ffffffff1660e01b81526004016101979291906106fb565b600060405180830381600087803b1580156101b157600080fd5b505af11580156101c5573d6000803e3d6000fd5b5050505050565b600260009054906101000a900473ffffffffffffffffffffffffffffffffffffffff1681565b600360009054906101000a900473ffffffffffffffffffffffffffffffffffffffff1681565b6000600267ffffffffffffffff81111561023557610234610724565b5b6040519080825280602002602001820160405280156102635781602001602082028036833780820191505090505b509050600260009054906101000a900473ffffffffffffffffffffffffffffffffffffffff168160008151811061029d5761029c610753565b5b602002602001019073ffffffffffffffffffffffffffffffffffffffff16908173ffffffffffffffffffffffffffffffffffffffff168152505060008054906101000a900473ffffffffffffffffffffffffffffffffffffffff168160018151811061030c5761030b610753565b5b602002602001019073ffffffffffffffffffffffffffffffffffffffff16908173ffffffffffffffffffffffffffffffffffffffff16815250506000600160009054906101000a900473ffffffffffffffffffffffffffffffffffffffff1673ffffffffffffffffffffffffffffffffffffffff16637ff36ab53460008530640218711a006040518663ffffffff1660e01b81526004016103b0949392919061087b565b6000604051808303818588803b1580156103c957600080fd5b505af11580156103dd573d6000803e3d6000fd5b50505050506040513d6000823e3d601f19601f820116820180604052508101906104079190610a06565b905060008054906101000a900473ffffffffffffffffffffffffffffffffffffffff1673ffffffffffffffffffffffffffffffffffffffff1663095ea7b3600360009054906101000a900473ffffffffffffffffffffffffffffffffffffffff166000196040518363ffffffff1660e01b8152600401610488929190610a4f565b602060405180830381600087803b1580156104a257600080fd5b505af11580156104b6573d6000803e3d6000fd5b505050506040513d601f19601f820116820180604052508101906104da9190610ab0565b50600360009054906101000a900473ffffffffffffffffffffffffffffffffffffffff1673ffffffffffffffffffffffffffffffffffffffff1663e2bbb15860008360018151811061052f5761052e610753565b5b60200260200101516040518363ffffffff1660e01b81526004016105549291906106fb565b600060405180830381600087803b15801561056e57600080fd5b505af1158015610582573d6000803e3d6000fd5b505050505050565b60008054906101000a900473ffffffffffffffffffffffffffffffffffffffff1681565b600160009054906101000a900473ffffffffffffffffffffffffffffffffffffffff1681565b6000604051905090565b600080fd5b600080fd5b6000819050919050565b6105fb816105e8565b811461060657600080fd5b50565b600081359050610618816105f2565b92915050565b600060208284031215610634576106336105de565b5b600061064284828501610609565b91505092915050565b600073ffffffffffffffffffffffffffffffffffffffff82169050919050565b60006106768261064b565b9050919050565b6106868161066b565b82525050565b60006020820190506106a1600083018461067d565b92915050565b6000819050919050565b6000819050919050565b60006106d66106d16106cc846106a7565b6106b1565b6105e8565b9050919050565b6106e6816106bb565b82525050565b6106f5816105e8565b82525050565b600060408201905061071060008301856106dd565b61071d60208301846106ec565b9392505050565b7f4e487b7100000000000000000000000000000000000000000000000000000000600052604160045260246000fd5b7f4e487b7100000000000000000000000000000000000000000000000000000000600052603260045260246000fd5b600081519050919050565b600082825260208201905092915050565b6000819050602082019050919050565b6107b78161066b565b82525050565b60006107c983836107ae565b60208301905092915050565b6000602082019050919050565b60006107ed82610782565b6107f7818561078d565b93506108028361079e565b8060005b8381101561083357815161081a88826107bd565b9750610825836107d5565b925050600181019050610806565b5085935050505092915050565b6000819050919050565b600061086561086061085b84610840565b6106b1565b6105e8565b9050919050565b6108758161084a565b82525050565b600060808201905061089060008301876106dd565b81810360208301526108a281866107e2565b90506108b1604083018561067d565b6108be606083018461086c565b95945050505050565b600080fd5b6000601f19601f8301169050919050565b6108e6826108cc565b810181811067ffffffffffffffff8211171561090557610904610724565b5b80604052505050565b60006109186105d4565b905061092482826108dd565b919050565b600067ffffffffffffffff82111561094457610943610724565b5b602082029050602081019050919050565b600080fd5b600081519050610969816105f2565b92915050565b600061098261097d84610929565b61090e565b905080838252602082019050602084028301858111156109a5576109a4610955565b5b835b818110156109ce57806109ba888261095a565b8452602084019350506020810190506109a7565b5050509392505050565b600082601f8301126109ed576109ec6108c7565b5b81516109fd84826020860161096f565b91505092915050565b600060208284031215610a1c57610a1b6105de565b5b600082015167ffffffffffffffff811115610a3a57610a396105e3565b5b610a46848285016109d8565b91505092915050565b6000604082019050610a64600083018561067d565b610a7160208301846106ec565b9392505050565b60008115159050919050565b610a8d81610a78565b8114610a9857600080fd5b50565b600081519050610aaa81610a84565b92915050565b600060208284031215610ac657610ac56105de565b5b6000610ad484828501610a9b565b9150509291505056fea26469706673582212203fccbbadf1fb2ca47edec8d2c548c605ff988f0349ecabe97ad9080784abdc0564736f6c63430008090033",
  "linkReferences": {},
  "deployedLinkReferences": {}
}