{
  "_format": "hh-sol-artifact-1",
  "contractName": "MiniSwapPool",
  "sourceName": "contracts/MiniSwapPool.sol",
  "abi": [
    {
      "inputs": [
        {
          "internalType": "address",
          "name": "_token0",
          "type": "address"
        },
        {
          "internalType": "address",
          "name": "_token1",
          "type": "address"
        }
      ],
      "stateMutability": "nonpayable",
      "type": "constructor"
    },
    {
      "anonymous": false,
      "inputs": [
        {
          "indexed": true,
          "internalType": "address",
          "name": "owner",
          "type": "address"
        },
        {
          "indexed": true,
          "internalType": "address",
          "name": "spender",
          "type": "address"
        },
        {
          "indexed": false,
          "internalType": "uint256",
          "name": "value",
          "type": "uint256"
        }
      ],
      "name": "Approval",
      "type": "event"
    },
    {
      "anonymous": false,
      "inputs": [
        {
          "indexed": true,
          "internalType": "address",
          "name": "from",
          "type": "address"
        },
        {
          "indexed": true,
          "internalType": "address",
          "name": "to",
          "type": "address"
        },
        {
          "indexed": false,
          "internalType": "uint256",
          "name": "value",
          "type": "uint256"
        }
      ],
      "name": "Transfer",
      "type": "event"
    },
    {
      "inputs": [],
      "name": "INITIAL_SUPPLY",
      "outputs": [
        {
          "internalType": "uint256",
          "name": "",
          "type": "uint256"
        }
      ],
      "stateMutability": "view",
      "type": "function"
    },
    {
      "inputs": [
        {
          "internalType": "uint256",
          "name": "amount0",
          "type": "uint256"
        },
        {
          "internalType": "uint256",
          "name": "amount1",
          "type": "uint256"
        }
      ],
      "name": "add",
      "outputs": [],
      "stateMutability": "nonpayable",
      "type": "function"
    },
    {
      "inputs": [
        {
          "internalType": "address",
          "name": "owner",
          "type": "address"
        },
        {
          "internalType": "address",
          "name": "spender",
          "type": "address"
        }
      ],
      "name": "allowance",
      "outputs": [
        {
          "internalType": "uint256",
          "name": "",
          "type": "uint256"
        }
      ],
      "stateMutability": "view",
      "type": "function"
    },
    {
      "inputs": [
        {
          "internalType": "address",
          "name": "spender",
          "type": "address"
        },
        {
          "internalType": "uint256",
          "name": "amount",
          "type": "uint256"
        }
      ],
      "name": "approve",
      "outputs": [
        {
          "internalType": "bool",
          "name": "",
          "type": "bool"
        }
      ],
      "stateMutability": "nonpayable",
      "type": "function"
    },
    {
      "inputs": [
        {
          "internalType": "address",
          "name": "account",
          "type": "address"
        }
      ],
      "name": "balanceOf",
      "outputs": [
        {
          "internalType": "uint256",
          "name": "",
          "type": "uint256"
        }
      ],
      "stateMutability": "view",
      "type": "function"
    },
    {
      "inputs": [],
      "name": "decimals",
      "outputs": [
        {
          "internalType": "uint8",
          "name": "",
          "type": "uint8"
        }
      ],
      "stateMutability": "view",
      "type": "function"
    },
    {
      "inputs": [
        {
          "internalType": "address",
          "name": "spender",
          "type": "address"
        },
        {
          "internalType": "uint256",
          "name": "subtractedValue",
          "type": "uint256"
        }
      ],
      "name": "decreaseAllowance",
      "outputs": [
        {
          "internalType": "bool",
          "name": "",
          "type": "bool"
        }
      ],
      "stateMutability": "nonpayable",
      "type": "function"
    },
    {
      "inputs": [
        {
          "internalType": "uint256",
          "name": "amountIn",
          "type": "uint256"
        },
        {
          "internalType": "address",
          "name": "fromToken",
          "type": "address"
        }
      ],
      "name": "getAmountOut",
      "outputs": [
        {
          "internalType": "uint256",
          "name": "amountOut",
          "type": "uint256"
        },
        {
          "internalType": "uint256",
          "name": "_reserve0",
          "type": "uint256"
        },
        {
          "internalType": "uint256",
          "name": "_reserve1",
          "type": "uint256"
        }
      ],
      "stateMutability": "view",
      "type": "function"
    },
    {
      "inputs": [
        {
          "internalType": "address",
          "name": "spender",
          "type": "address"
        },
        {
          "internalType": "uint256",
          "name": "addedValue",
          "type": "uint256"
        }
      ],
      "name": "increaseAllowance",
      "outputs": [
        {
          "internalType": "bool",
          "name": "",
          "type": "bool"
        }
      ],
      "stateMutability": "nonpayable",
      "type": "function"
    },
    {
      "inputs": [],
      "name": "name",
      "outputs": [
        {
          "internalType": "string",
          "name": "",
          "type": "string"
        }
      ],
      "stateMutability": "view",
      "type": "function"
    },
    {
      "inputs": [
        {
          "internalType": "uint256",
          "name": "liquidity",
          "type": "uint256"
        }
      ],
      "name": "remove",
      "outputs": [],
      "stateMutability": "nonpayable",
      "type": "function"
    },
    {
      "inputs": [],
      "name": "reserve0",
      "outputs": [
        {
          "internalType": "uint256",
          "name": "",
          "type": "uint256"
        }
      ],
      "stateMutability": "view",
      "type": "function"
    },
    {
      "inputs": [],
      "name": "reserve1",
      "outputs": [
        {
          "internalType": "uint256",
          "name": "",
          "type": "uint256"
        }
      ],
      "stateMutability": "view",
      "type": "function"
    },
    {
      "inputs": [
        {
          "internalType": "uint256",
          "name": "amountIn",
          "type": "uint256"
        },
        {
          "internalType": "uint256",
          "name": "minAmountOut",
          "type": "uint256"
        },
        {
          "internalType": "address",
          "name": "fromToken",
          "type": "address"
        },
        {
          "internalType": "address",
          "name": "toToken",
          "type": "address"
        },
        {
          "internalType": "address",
          "name": "to",
          "type": "address"
        }
      ],
      "name": "swap",
      "outputs": [],
      "stateMutability": "nonpayable",
      "type": "function"
    },
    {
      "inputs": [],
      "name": "symbol",
      "outputs": [
        {
          "internalType": "string",
          "name": "",
          "type": "string"
        }
      ],
      "stateMutability": "view",
      "type": "function"
    },
    {
      "inputs": [],
      "name": "token0",
      "outputs": [
        {
          "internalType": "address",
          "name": "",
          "type": "address"
        }
      ],
      "stateMutability": "view",
      "type": "function"
    },
    {
      "inputs": [],
      "name": "token1",
      "outputs": [
        {
          "internalType": "address",
          "name": "",
          "type": "address"
        }
      ],
      "stateMutability": "view",
      "type": "function"
    },
    {
      "inputs": [],
      "name": "totalSupply",
      "outputs": [
        {
          "internalType": "uint256",
          "name": "",
          "type": "uint256"
        }
      ],
      "stateMutability": "view",
      "type": "function"
    },
    {
      "inputs": [
        {
          "internalType": "address",
          "name": "to",
          "type": "address"
        },
        {
          "internalType": "uint256",
          "name": "amount",
          "type": "uint256"
        }
      ],
      "name": "transfer",
      "outputs": [
        {
          "internalType": "bool",
          "name": "",
          "type": "bool"
        }
      ],
      "stateMutability": "nonpayable",
      "type": "function"
    },
    {
      "inputs": [
        {
          "internalType": "address",
          "name": "from",
          "type": "address"
        },
        {
          "internalType": "address",
          "name": "to",
          "type": "address"
        },
        {
          "internalType": "uint256",
          "name": "amount",
          "type": "uint256"
        }
      ],
      "name": "transferFrom",
      "outputs": [
        {
          "internalType": "bool",
          "name": "",
          "type": "bool"
        }
      ],
      "stateMutability": "nonpayable",
      "type": "function"
    }
  ],
  "bytecode": "0x60806040523480156200001157600080fd5b5060405162002c7538038062002c7583398181016040528101906200003791906200027b565b6040518060400160405280601781526020017f4c6f6f6e65794c697175696469747950726f76696465720000000000000000008152506040518060400160405280600281526020017f4c500000000000000000000000000000000000000000000000000000000000008152508160039080519060200190620000bb92919062000161565b508060049080519060200190620000d492919062000161565b50505081600560006101000a81548173ffffffffffffffffffffffffffffffffffffffff021916908373ffffffffffffffffffffffffffffffffffffffff16021790555080600660006101000a81548173ffffffffffffffffffffffffffffffffffffffff021916908373ffffffffffffffffffffffffffffffffffffffff160217905550505062000327565b8280546200016f90620002f1565b90600052602060002090601f016020900481019282620001935760008555620001df565b82601f10620001ae57805160ff1916838001178555620001df565b82800160010185558215620001df579182015b82811115620001de578251825591602001919060010190620001c1565b5b509050620001ee9190620001f2565b5090565b5b808211156200020d576000816000905550600101620001f3565b5090565b600080fd5b600073ffffffffffffffffffffffffffffffffffffffff82169050919050565b6000620002438262000216565b9050919050565b620002558162000236565b81146200026157600080fd5b50565b60008151905062000275816200024a565b92915050565b6000806040838503121562000295576200029462000211565b5b6000620002a58582860162000264565b9250506020620002b88582860162000264565b9150509250929050565b7f4e487b7100000000000000000000000000000000000000000000000000000000600052602260045260246000fd5b600060028204905060018216806200030a57607f821691505b60208210811415620003215762000320620002c2565b5b50919050565b61293e80620003376000396000f3fe608060405234801561001057600080fd5b506004361061012c5760003560e01c80635a76f25e116100ad578063a9059cbb11610071578063a9059cbb14610349578063d21220a714610379578063dd62ed3e14610397578063eab90da6146103c7578063f140a35a146103e35761012c565b80635a76f25e1461029157806370a08231146102af578063771602f7146102df57806395d89b41146102fb578063a457c2d7146103195761012c565b80632ff2e9dc116100f45780632ff2e9dc146101eb578063313ce567146102095780633950935114610227578063443cb4bc146102575780634cc82215146102755761012c565b806306fdde0314610131578063095ea7b31461014f5780630dfe16811461017f57806318160ddd1461019d57806323b872dd146101bb575b600080fd5b610139610415565b6040516101469190611ac7565b60405180910390f35b61016960048036038101906101649190611b82565b6104a7565b6040516101769190611bdd565b60405180910390f35b6101876104ca565b6040516101949190611c07565b60405180910390f35b6101a56104f0565b6040516101b29190611c31565b60405180910390f35b6101d560048036038101906101d09190611c4c565b6104fa565b6040516101e29190611bdd565b60405180910390f35b6101f3610529565b6040516102009190611c31565b60405180910390f35b610211610530565b60405161021e9190611cbb565b60405180910390f35b610241600480360381019061023c9190611b82565b610539565b60405161024e9190611bdd565b60405180910390f35b61025f6105e3565b60405161026c9190611c31565b60405180910390f35b61028f600480360381019061028a9190611cd6565b6105e9565b005b6102996107f6565b6040516102a69190611c31565b60405180910390f35b6102c960048036038101906102c49190611d03565b6107fc565b6040516102d69190611c31565b60405180910390f35b6102f960048036038101906102f49190611d30565b610844565b005b610303610a91565b6040516103109190611ac7565b60405180910390f35b610333600480360381019061032e9190611b82565b610b23565b6040516103409190611bdd565b60405180910390f35b610363600480360381019061035e9190611b82565b610c0d565b6040516103709190611bdd565b60405180910390f35b610381610c30565b60405161038e9190611c07565b60405180910390f35b6103b160048036038101906103ac9190611d70565b610c56565b6040516103be9190611c31565b60405180910390f35b6103e160048036038101906103dc9190611db0565b610cdd565b005b6103fd60048036038101906103f89190611e2b565b611111565b60405161040c93929190611e6b565b60405180910390f35b60606003805461042490611ed1565b80601f016020809104026020016040519081016040528092919081815260200182805461045090611ed1565b801561049d5780601f106104725761010080835404028352916020019161049d565b820191906000526020600020905b81548152906001019060200180831161048057829003601f168201915b5050505050905090565b6000806104b26111f4565b90506104bf8185856111fc565b600191505092915050565b600560009054906101000a900473ffffffffffffffffffffffffffffffffffffffff1681565b6000600254905090565b6000806105056111f4565b90506105128582856113c7565b61051d858585611453565b60019150509392505050565b620186a081565b60006012905090565b6000806105446111f4565b90506105d8818585600160008673ffffffffffffffffffffffffffffffffffffffff1673ffffffffffffffffffffffffffffffffffffffff16815260200190815260200160002060008973ffffffffffffffffffffffffffffffffffffffff1673ffffffffffffffffffffffffffffffffffffffff168152602001908152602001600020546105d39190611f32565b6111fc565b600191505092915050565b60075481565b6105f33082610c0d565b610600576105ff611f88565b5b600061060a6104f0565b90506000816007548461061d9190611fb7565b6106279190612040565b90506000826008548561063a9190611fb7565b6106449190612040565b905061065030856116d4565b600560009054906101000a900473ffffffffffffffffffffffffffffffffffffffff1673ffffffffffffffffffffffffffffffffffffffff1663a9059cbb33846040518363ffffffff1660e01b81526004016106ad929190612071565b602060405180830381600087803b1580156106c757600080fd5b505af11580156106db573d6000803e3d6000fd5b505050506040513d601f19601f820116820180604052508101906106ff91906120c6565b61070c5761070b611f88565b5b600660009054906101000a900473ffffffffffffffffffffffffffffffffffffffff1673ffffffffffffffffffffffffffffffffffffffff1663a9059cbb33836040518363ffffffff1660e01b8152600401610769929190612071565b602060405180830381600087803b15801561078357600080fd5b505af1158015610797573d6000803e3d6000fd5b505050506040513d601f19601f820116820180604052508101906107bb91906120c6565b6107c8576107c7611f88565b5b816007546107d691906120f3565b600781905550806008546107ea91906120f3565b60088190555050505050565b60085481565b60008060008373ffffffffffffffffffffffffffffffffffffffff1673ffffffffffffffffffffffffffffffffffffffff168152602001908152602001600020549050919050565b600560009054906101000a900473ffffffffffffffffffffffffffffffffffffffff1673ffffffffffffffffffffffffffffffffffffffff166323b872dd3330856040518463ffffffff1660e01b81526004016108a393929190612127565b602060405180830381600087803b1580156108bd57600080fd5b505af11580156108d1573d6000803e3d6000fd5b505050506040513d601f19601f820116820180604052508101906108f591906120c6565b61090257610901611f88565b5b600660009054906101000a900473ffffffffffffffffffffffffffffffffffffffff1673ffffffffffffffffffffffffffffffffffffffff166323b872dd3330846040518463ffffffff1660e01b815260040161096193929190612127565b602060405180830381600087803b15801561097b57600080fd5b505af115801561098f573d6000803e3d6000fd5b505050506040513d601f19601f820116820180604052508101906109b391906120c6565b6109c0576109bf611f88565b5b6000826007546109d09190611f32565b90506000826008546109e29190611f32565b905060006007541480156109f857506000600854145b15610a0f57610a0a33620186a06118ab565b610a7d565b6000610a196104f0565b905060006007548285610a2c9190611fb7565b610a369190612040565b905060006008548385610a499190611fb7565b610a539190612040565b90506000610a618383611a0b565b9050610a78338583610a7391906120f3565b6118ab565b505050505b816007819055508060088190555050505050565b606060048054610aa090611ed1565b80601f0160208091040260200160405190810160405280929190818152602001828054610acc90611ed1565b8015610b195780601f10610aee57610100808354040283529160200191610b19565b820191906000526020600020905b815481529060010190602001808311610afc57829003601f168201915b5050505050905090565b600080610b2e6111f4565b90506000600160008373ffffffffffffffffffffffffffffffffffffffff1673ffffffffffffffffffffffffffffffffffffffff16815260200190815260200160002060008673ffffffffffffffffffffffffffffffffffffffff1673ffffffffffffffffffffffffffffffffffffffff16815260200190815260200160002054905083811015610bf4576040517f08c379a0000000000000000000000000000000000000000000000000000000008152600401610beb906121d0565b60405180910390fd5b610c0182868684036111fc565b60019250505092915050565b600080610c186111f4565b9050610c25818585611453565b600191505092915050565b600660009054906101000a900473ffffffffffffffffffffffffffffffffffffffff1681565b6000600160008473ffffffffffffffffffffffffffffffffffffffff1673ffffffffffffffffffffffffffffffffffffffff16815260200190815260200160002060008373ffffffffffffffffffffffffffffffffffffffff1673ffffffffffffffffffffffffffffffffffffffff16815260200190815260200160002054905092915050565b600085118015610ced5750600084115b610d2c576040517f08c379a0000000000000000000000000000000000000000000000000000000008152600401610d239061223c565b60405180910390fd5b600560009054906101000a900473ffffffffffffffffffffffffffffffffffffffff1673ffffffffffffffffffffffffffffffffffffffff168373ffffffffffffffffffffffffffffffffffffffff161480610dd55750600660009054906101000a900473ffffffffffffffffffffffffffffffffffffffff1673ffffffffffffffffffffffffffffffffffffffff168373ffffffffffffffffffffffffffffffffffffffff16145b610e14576040517f08c379a0000000000000000000000000000000000000000000000000000000008152600401610e0b906122a8565b60405180910390fd5b600560009054906101000a900473ffffffffffffffffffffffffffffffffffffffff1673ffffffffffffffffffffffffffffffffffffffff168273ffffffffffffffffffffffffffffffffffffffff161480610ebd5750600660009054906101000a900473ffffffffffffffffffffffffffffffffffffffff1673ffffffffffffffffffffffffffffffffffffffff168273ffffffffffffffffffffffffffffffffffffffff16145b610efc576040517f08c379a0000000000000000000000000000000000000000000000000000000008152600401610ef390612314565b60405180910390fd5b8173ffffffffffffffffffffffffffffffffffffffff168373ffffffffffffffffffffffffffffffffffffffff161415610f6b576040517f08c379a0000000000000000000000000000000000000000000000000000000008152600401610f62906123a6565b60405180910390fd5b6000806000610f7a8887611111565b92509250925086831015610fc3576040517f08c379a0000000000000000000000000000000000000000000000000000000008152600401610fba90612412565b60405180910390fd5b8573ffffffffffffffffffffffffffffffffffffffff166323b872dd33308b6040518463ffffffff1660e01b815260040161100093929190612127565b602060405180830381600087803b15801561101a57600080fd5b505af115801561102e573d6000803e3d6000fd5b505050506040513d601f19601f8201168201806040525081019061105291906120c6565b61105f5761105e611f88565b5b8473ffffffffffffffffffffffffffffffffffffffff1663a9059cbb85856040518363ffffffff1660e01b815260040161109a929190612071565b602060405180830381600087803b1580156110b457600080fd5b505af11580156110c8573d6000803e3d6000fd5b505050506040513d601f19601f820116820180604052508101906110ec91906120c6565b6110f9576110f8611f88565b5b81600781905550806008819055505050505050505050565b60008060008060008060085460075461112a9190611fb7565b9050600560009054906101000a900473ffffffffffffffffffffffffffffffffffffffff1673ffffffffffffffffffffffffffffffffffffffff168773ffffffffffffffffffffffffffffffffffffffff1614156111b557600754886111909190611f32565b9250828161119e9190612040565b9150816008546111ae91906120f3565b95506111e4565b600854886111c39190611f32565b915081816111d19190612040565b9250826007546111e191906120f3565b95505b8294508193505050509250925092565b600033905090565b600073ffffffffffffffffffffffffffffffffffffffff168373ffffffffffffffffffffffffffffffffffffffff16141561126c576040517f08c379a0000000000000000000000000000000000000000000000000000000008152600401611263906124a4565b60405180910390fd5b600073ffffffffffffffffffffffffffffffffffffffff168273ffffffffffffffffffffffffffffffffffffffff1614156112dc576040517f08c379a00000000000000000000000000000000000000000000000000000000081526004016112d390612536565b60405180910390fd5b80600160008573ffffffffffffffffffffffffffffffffffffffff1673ffffffffffffffffffffffffffffffffffffffff16815260200190815260200160002060008473ffffffffffffffffffffffffffffffffffffffff1673ffffffffffffffffffffffffffffffffffffffff168152602001908152602001600020819055508173ffffffffffffffffffffffffffffffffffffffff168373ffffffffffffffffffffffffffffffffffffffff167f8c5be1e5ebec7d5bd14f71427d1e84f3dd0314c0f7b2291e5b200ac8c7c3b925836040516113ba9190611c31565b60405180910390a3505050565b60006113d38484610c56565b90507fffffffffffffffffffffffffffffffffffffffffffffffffffffffffffffffff811461144d578181101561143f576040517f08c379a0000000000000000000000000000000000000000000000000000000008152600401611436906125a2565b60405180910390fd5b61144c84848484036111fc565b5b50505050565b600073ffffffffffffffffffffffffffffffffffffffff168373ffffffffffffffffffffffffffffffffffffffff1614156114c3576040517f08c379a00000000000000000000000000000000000000000000000000000000081526004016114ba90612634565b60405180910390fd5b600073ffffffffffffffffffffffffffffffffffffffff168273ffffffffffffffffffffffffffffffffffffffff161415611533576040517f08c379a000000000000000000000000000000000000000000000000000000000815260040161152a906126c6565b60405180910390fd5b61153e838383611a24565b60008060008573ffffffffffffffffffffffffffffffffffffffff1673ffffffffffffffffffffffffffffffffffffffff168152602001908152602001600020549050818110156115c4576040517f08c379a00000000000000000000000000000000000000000000000000000000081526004016115bb90612758565b60405180910390fd5b8181036000808673ffffffffffffffffffffffffffffffffffffffff1673ffffffffffffffffffffffffffffffffffffffff16815260200190815260200160002081905550816000808573ffffffffffffffffffffffffffffffffffffffff1673ffffffffffffffffffffffffffffffffffffffff16815260200190815260200160002060008282546116579190611f32565b925050819055508273ffffffffffffffffffffffffffffffffffffffff168473ffffffffffffffffffffffffffffffffffffffff167fddf252ad1be2c89b69c2b068fc378daa952ba7f163c4a11628f55a4df523b3ef846040516116bb9190611c31565b60405180910390a36116ce848484611a29565b50505050565b600073ffffffffffffffffffffffffffffffffffffffff168273ffffffffffffffffffffffffffffffffffffffff161415611744576040517f08c379a000000000000000000000000000000000000000000000000000000000815260040161173b906127ea565b60405180910390fd5b61175082600083611a24565b60008060008473ffffffffffffffffffffffffffffffffffffffff1673ffffffffffffffffffffffffffffffffffffffff168152602001908152602001600020549050818110156117d6576040517f08c379a00000000000000000000000000000000000000000000000000000000081526004016117cd9061287c565b60405180910390fd5b8181036000808573ffffffffffffffffffffffffffffffffffffffff1673ffffffffffffffffffffffffffffffffffffffff16815260200190815260200160002081905550816002600082825461182d91906120f3565b92505081905550600073ffffffffffffffffffffffffffffffffffffffff168373ffffffffffffffffffffffffffffffffffffffff167fddf252ad1be2c89b69c2b068fc378daa952ba7f163c4a11628f55a4df523b3ef846040516118929190611c31565b60405180910390a36118a683600084611a29565b505050565b600073ffffffffffffffffffffffffffffffffffffffff168273ffffffffffffffffffffffffffffffffffffffff16141561191b576040517f08c379a0000000000000000000000000000000000000000000000000000000008152600401611912906128e8565b60405180910390fd5b61192760008383611a24565b80600260008282546119399190611f32565b92505081905550806000808473ffffffffffffffffffffffffffffffffffffffff1673ffffffffffffffffffffffffffffffffffffffff168152602001908152602001600020600082825461198e9190611f32565b925050819055508173ffffffffffffffffffffffffffffffffffffffff16600073ffffffffffffffffffffffffffffffffffffffff167fddf252ad1be2c89b69c2b068fc378daa952ba7f163c4a11628f55a4df523b3ef836040516119f39190611c31565b60405180910390a3611a0760008383611a29565b5050565b6000818310611a1a5781611a1c565b825b905092915050565b505050565b505050565b600081519050919050565b600082825260208201905092915050565b60005b83811015611a68578082015181840152602081019050611a4d565b83811115611a77576000848401525b50505050565b6000601f19601f8301169050919050565b6000611a9982611a2e565b611aa38185611a39565b9350611ab3818560208601611a4a565b611abc81611a7d565b840191505092915050565b60006020820190508181036000830152611ae18184611a8e565b905092915050565b600080fd5b600073ffffffffffffffffffffffffffffffffffffffff82169050919050565b6000611b1982611aee565b9050919050565b611b2981611b0e565b8114611b3457600080fd5b50565b600081359050611b4681611b20565b92915050565b6000819050919050565b611b5f81611b4c565b8114611b6a57600080fd5b50565b600081359050611b7c81611b56565b92915050565b60008060408385031215611b9957611b98611ae9565b5b6000611ba785828601611b37565b9250506020611bb885828601611b6d565b9150509250929050565b60008115159050919050565b611bd781611bc2565b82525050565b6000602082019050611bf26000830184611bce565b92915050565b611c0181611b0e565b82525050565b6000602082019050611c1c6000830184611bf8565b92915050565b611c2b81611b4c565b82525050565b6000602082019050611c466000830184611c22565b92915050565b600080600060608486031215611c6557611c64611ae9565b5b6000611c7386828701611b37565b9350506020611c8486828701611b37565b9250506040611c9586828701611b6d565b9150509250925092565b600060ff82169050919050565b611cb581611c9f565b82525050565b6000602082019050611cd06000830184611cac565b92915050565b600060208284031215611cec57611ceb611ae9565b5b6000611cfa84828501611b6d565b91505092915050565b600060208284031215611d1957611d18611ae9565b5b6000611d2784828501611b37565b91505092915050565b60008060408385031215611d4757611d46611ae9565b5b6000611d5585828601611b6d565b9250506020611d6685828601611b6d565b9150509250929050565b60008060408385031215611d8757611d86611ae9565b5b6000611d9585828601611b37565b9250506020611da685828601611b37565b9150509250929050565b600080600080600060a08688031215611dcc57611dcb611ae9565b5b6000611dda88828901611b6d565b9550506020611deb88828901611b6d565b9450506040611dfc88828901611b37565b9350506060611e0d88828901611b37565b9250506080611e1e88828901611b37565b9150509295509295909350565b60008060408385031215611e4257611e41611ae9565b5b6000611e5085828601611b6d565b9250506020611e6185828601611b37565b9150509250929050565b6000606082019050611e806000830186611c22565b611e8d6020830185611c22565b611e9a6040830184611c22565b949350505050565b7f4e487b7100000000000000000000000000000000000000000000000000000000600052602260045260246000fd5b60006002820490506001821680611ee957607f821691505b60208210811415611efd57611efc611ea2565b5b50919050565b7f4e487b7100000000000000000000000000000000000000000000000000000000600052601160045260246000fd5b6000611f3d82611b4c565b9150611f4883611b4c565b9250827fffffffffffffffffffffffffffffffffffffffffffffffffffffffffffffffff03821115611f7d57611f7c611f03565b5b828201905092915050565b7f4e487b7100000000000000000000000000000000000000000000000000000000600052600160045260246000fd5b6000611fc282611b4c565b9150611fcd83611b4c565b9250817fffffffffffffffffffffffffffffffffffffffffffffffffffffffffffffffff048311821515161561200657612005611f03565b5b828202905092915050565b7f4e487b7100000000000000000000000000000000000000000000000000000000600052601260045260246000fd5b600061204b82611b4c565b915061205683611b4c565b92508261206657612065612011565b5b828204905092915050565b60006040820190506120866000830185611bf8565b6120936020830184611c22565b9392505050565b6120a381611bc2565b81146120ae57600080fd5b50565b6000815190506120c08161209a565b92915050565b6000602082840312156120dc576120db611ae9565b5b60006120ea848285016120b1565b91505092915050565b60006120fe82611b4c565b915061210983611b4c565b92508282101561211c5761211b611f03565b5b828203905092915050565b600060608201905061213c6000830186611bf8565b6121496020830185611bf8565b6121566040830184611c22565b949350505050565b7f45524332303a2064656372656173656420616c6c6f77616e63652062656c6f7760008201527f207a65726f000000000000000000000000000000000000000000000000000000602082015250565b60006121ba602583611a39565b91506121c58261215e565b604082019050919050565b600060208201905081810360008301526121e9816121ad565b9050919050565b7f416d6f756e7420696e76616c6964000000000000000000000000000000000000600082015250565b6000612226600e83611a39565b9150612231826121f0565b602082019050919050565b6000602082019050818103600083015261225581612219565b9050919050565b7f46726f6d20746f6b656e20696e76616c69640000000000000000000000000000600082015250565b6000612292601283611a39565b915061229d8261225c565b602082019050919050565b600060208201905081810360008301526122c181612285565b9050919050565b7f546f20746f6b656e20696e76616c696400000000000000000000000000000000600082015250565b60006122fe601083611a39565b9150612309826122c8565b602082019050919050565b6000602082019050818103600083015261232d816122f1565b9050919050565b7f46726f6d20616e6420746f20746f6b656e732073686f756c64206e6f74206d6160008201527f7463680000000000000000000000000000000000000000000000000000000000602082015250565b6000612390602383611a39565b915061239b82612334565b604082019050919050565b600060208201905081810360008301526123bf81612383565b9050919050565b7f536c69707065642e2e2e206f6e20612062616e616e6100000000000000000000600082015250565b60006123fc601683611a39565b9150612407826123c6565b602082019050919050565b6000602082019050818103600083015261242b816123ef565b9050919050565b7f45524332303a20617070726f76652066726f6d20746865207a65726f2061646460008201527f7265737300000000000000000000000000000000000000000000000000000000602082015250565b600061248e602483611a39565b915061249982612432565b604082019050919050565b600060208201905081810360008301526124bd81612481565b9050919050565b7f45524332303a20617070726f766520746f20746865207a65726f20616464726560008201527f7373000000000000000000000000000000000000000000000000000000000000602082015250565b6000612520602283611a39565b915061252b826124c4565b604082019050919050565b6000602082019050818103600083015261254f81612513565b9050919050565b7f45524332303a20696e73756666696369656e7420616c6c6f77616e6365000000600082015250565b600061258c601d83611a39565b915061259782612556565b602082019050919050565b600060208201905081810360008301526125bb8161257f565b9050919050565b7f45524332303a207472616e736665722066726f6d20746865207a65726f20616460008201527f6472657373000000000000000000000000000000000000000000000000000000602082015250565b600061261e602583611a39565b9150612629826125c2565b604082019050919050565b6000602082019050818103600083015261264d81612611565b9050919050565b7f45524332303a207472616e7366657220746f20746865207a65726f206164647260008201527f6573730000000000000000000000000000000000000000000000000000000000602082015250565b60006126b0602383611a39565b91506126bb82612654565b604082019050919050565b600060208201905081810360008301526126df816126a3565b9050919050565b7f45524332303a207472616e7366657220616d6f756e742065786365656473206260008201527f616c616e63650000000000000000000000000000000000000000000000000000602082015250565b6000612742602683611a39565b915061274d826126e6565b604082019050919050565b6000602082019050818103600083015261277181612735565b9050919050565b7f45524332303a206275726e2066726f6d20746865207a65726f2061646472657360008201527f7300000000000000000000000000000000000000000000000000000000000000602082015250565b60006127d4602183611a39565b91506127df82612778565b604082019050919050565b60006020820190508181036000830152612803816127c7565b9050919050565b7f45524332303a206275726e20616d6f756e7420657863656564732062616c616e60008201527f6365000000000000000000000000000000000000000000000000000000000000602082015250565b6000612866602283611a39565b91506128718261280a565b604082019050919050565b6000602082019050818103600083015261289581612859565b9050919050565b7f45524332303a206d696e7420746f20746865207a65726f206164647265737300600082015250565b60006128d2601f83611a39565b91506128dd8261289c565b602082019050919050565b60006020820190508181036000830152612901816128c5565b905091905056fea2646970667358221220668d0084dc629ed648794035ea8dde4d77f770f7aa7093982b67d4ace82f75e264736f6c63430008090033",
  "linkReferences": {},
  "deployedLinkReferences": {}
}