{
  "_format": "hh-sol-artifact-1",
  "contractName": "MyTokenMarket",
  "sourceName": "contracts/MyTokenMarket.sol",
  "abi": [
    {
      "inputs": [
        {
          "internalType": "address",
          "name": "_token",
          "type": "address"
        },
        {
          "internalType": "address",
          "name": "_router",
          "type": "address"
        },
        {
          "internalType": "address",
          "name": "_weth",
          "type": "address"
        }
      ],
      "stateMutability": "nonpayable",
      "type": "constructor"
    },
    {
      "inputs": [
        {
          "internalType": "uint256",
          "name": "tokenAmount",
          "type": "uint256"
        }
      ],
      "name": "AddLiquidity",
      "outputs": [],
      "stateMutability": "payable",
      "type": "function"
    },
    {
      "inputs": [
        {
          "internalType": "uint256",
          "name": "minTokenAmount",
          "type": "uint256"
        }
      ],
      "name": "buyToken",
      "outputs": [],
      "stateMutability": "payable",
      "type": "function"
    },
    {
      "inputs": [],
      "name": "myToken",
      "outputs": [
        {
          "internalType": "address",
          "name": "",
          "type": "address"
        }
      ],
      "stateMutability": "view",
      "type": "function"
    },
    {
      "inputs": [],
      "name": "router",
      "outputs": [
        {
          "internalType": "address",
          "name": "",
          "type": "address"
        }
      ],
      "stateMutability": "view",
      "type": "function"
    },
    {
      "inputs": [],
      "name": "weth",
      "outputs": [
        {
          "internalType": "address",
          "name": "",
          "type": "address"
        }
      ],
      "stateMutability": "view",
      "type": "function"
    }
  ],
  "bytecode": "0x60806040523480156200001157600080fd5b506040516200147f3803806200147f83398181016040528101906200003791906200016c565b826000806101000a81548173ffffffffffffffffffffffffffffffffffffffff021916908373ffffffffffffffffffffffffffffffffffffffff16021790555081600160006101000a81548173ffffffffffffffffffffffffffffffffffffffff021916908373ffffffffffffffffffffffffffffffffffffffff16021790555080600260006101000a81548173ffffffffffffffffffffffffffffffffffffffff021916908373ffffffffffffffffffffffffffffffffffffffff160217905550505050620001c8565b600080fd5b600073ffffffffffffffffffffffffffffffffffffffff82169050919050565b6000620001348262000107565b9050919050565b620001468162000127565b81146200015257600080fd5b50565b60008151905062000166816200013b565b92915050565b60008060006060848603121562000188576200018762000102565b5b6000620001988682870162000155565b9350506020620001ab8682870162000155565b9250506040620001be8682870162000155565b9150509250925092565b6112a780620001d86000396000f3fe60806040526004361061004a5760003560e01c80632d296bf11461004f5780633fc8cef31461006b578063b8fcf93714610096578063f53d9d58146100c1578063f887ea40146100dd575b600080fd5b610069600480360381019061006491906109ab565b610108565b005b34801561007757600080fd5b506100806102f4565b60405161008d9190610a19565b60405180910390f35b3480156100a257600080fd5b506100ab61031a565b6040516100b89190610a19565b60405180910390f35b6100db60048036038101906100d691906109ab565b61033e565b005b3480156100e957600080fd5b506100f26104d7565b6040516100ff9190610a19565b60405180910390f35b6000600267ffffffffffffffff81111561012557610124610a34565b5b6040519080825280602002602001820160405280156101535781602001602082028036833780820191505090505b509050600260009054906101000a900473ffffffffffffffffffffffffffffffffffffffff168160008151811061018d5761018c610a63565b5b602002602001019073ffffffffffffffffffffffffffffffffffffffff16908173ffffffffffffffffffffffffffffffffffffffff168152505060008054906101000a900473ffffffffffffffffffffffffffffffffffffffff16816001815181106101fc576101fb610a63565b5b602002602001019073ffffffffffffffffffffffffffffffffffffffff16908173ffffffffffffffffffffffffffffffffffffffff1681525050600160009054906101000a900473ffffffffffffffffffffffffffffffffffffffff1673ffffffffffffffffffffffffffffffffffffffff16637ff36ab534848433426040518663ffffffff1660e01b81526004016102989493929190610b5f565b6000604051808303818588803b1580156102b157600080fd5b505af11580156102c5573d6000803e3d6000fd5b50505050506040513d6000823e3d601f19601f820116820180604052508101906102ef9190610cea565b505050565b600260009054906101000a900473ffffffffffffffffffffffffffffffffffffffff1681565b60008054906101000a900473ffffffffffffffffffffffffffffffffffffffff1681565b61038b33308360008054906101000a900473ffffffffffffffffffffffffffffffffffffffff1673ffffffffffffffffffffffffffffffffffffffff166104fd909392919063ffffffff16565b6103f8600160009054906101000a900473ffffffffffffffffffffffffffffffffffffffff168260008054906101000a900473ffffffffffffffffffffffffffffffffffffffff1673ffffffffffffffffffffffffffffffffffffffff166105869092919063ffffffff16565b600160009054906101000a900473ffffffffffffffffffffffffffffffffffffffff1673ffffffffffffffffffffffffffffffffffffffff1663f305d7193460008054906101000a900473ffffffffffffffffffffffffffffffffffffffff168460008033426040518863ffffffff1660e01b815260040161047f96959493929190610d78565b6060604051808303818588803b15801561049857600080fd5b505af11580156104ac573d6000803e3d6000fd5b50505050506040513d601f19601f820116820180604052508101906104d19190610dd9565b50505050565b600160009054906101000a900473ffffffffffffffffffffffffffffffffffffffff1681565b610580846323b872dd60e01b85858560405160240161051e93929190610e2c565b604051602081830303815290604052907bffffffffffffffffffffffffffffffffffffffffffffffffffffffff19166020820180517bffffffffffffffffffffffffffffffffffffffffffffffffffffffff83818316178352505050506106e4565b50505050565b600081148061061f575060008373ffffffffffffffffffffffffffffffffffffffff1663dd62ed3e30856040518363ffffffff1660e01b81526004016105cd929190610e63565b60206040518083038186803b1580156105e557600080fd5b505afa1580156105f9573d6000803e3d6000fd5b505050506040513d601f19601f8201168201806040525081019061061d9190610e8c565b145b61065e576040517f08c379a000000000000000000000000000000000000000000000000000000000815260040161065590610f3c565b60405180910390fd5b6106df8363095ea7b360e01b848460405160240161067d929190610f5c565b604051602081830303815290604052907bffffffffffffffffffffffffffffffffffffffffffffffffffffffff19166020820180517bffffffffffffffffffffffffffffffffffffffffffffffffffffffff83818316178352505050506106e4565b505050565b6000610746826040518060400160405280602081526020017f5361666545524332303a206c6f772d6c6576656c2063616c6c206661696c65648152508573ffffffffffffffffffffffffffffffffffffffff166107ab9092919063ffffffff16565b90506000815111156107a657808060200190518101906107669190610fbd565b6107a5576040517f08c379a000000000000000000000000000000000000000000000000000000000815260040161079c9061105c565b60405180910390fd5b5b505050565b60606107ba84846000856107c3565b90509392505050565b606082471015610808576040517f08c379a00000000000000000000000000000000000000000000000000000000081526004016107ff906110ee565b60405180910390fd5b610811856108d7565b610850576040517f08c379a00000000000000000000000000000000000000000000000000000000081526004016108479061115a565b60405180910390fd5b6000808673ffffffffffffffffffffffffffffffffffffffff16858760405161087991906111f4565b60006040518083038185875af1925050503d80600081146108b6576040519150601f19603f3d011682016040523d82523d6000602084013e6108bb565b606091505b50915091506108cb8282866108fa565b92505050949350505050565b6000808273ffffffffffffffffffffffffffffffffffffffff163b119050919050565b6060831561090a5782905061095a565b60008351111561091d5782518084602001fd5b816040517f08c379a0000000000000000000000000000000000000000000000000000000008152600401610951919061124f565b60405180910390fd5b9392505050565b6000604051905090565b600080fd5b600080fd5b6000819050919050565b61098881610975565b811461099357600080fd5b50565b6000813590506109a58161097f565b92915050565b6000602082840312156109c1576109c061096b565b5b60006109cf84828501610996565b91505092915050565b600073ffffffffffffffffffffffffffffffffffffffff82169050919050565b6000610a03826109d8565b9050919050565b610a13816109f8565b82525050565b6000602082019050610a2e6000830184610a0a565b92915050565b7f4e487b7100000000000000000000000000000000000000000000000000000000600052604160045260246000fd5b7f4e487b7100000000000000000000000000000000000000000000000000000000600052603260045260246000fd5b610a9b81610975565b82525050565b600081519050919050565b600082825260208201905092915050565b6000819050602082019050919050565b610ad6816109f8565b82525050565b6000610ae88383610acd565b60208301905092915050565b6000602082019050919050565b6000610b0c82610aa1565b610b168185610aac565b9350610b2183610abd565b8060005b83811015610b52578151610b398882610adc565b9750610b4483610af4565b925050600181019050610b25565b5085935050505092915050565b6000608082019050610b746000830187610a92565b8181036020830152610b868186610b01565b9050610b956040830185610a0a565b610ba26060830184610a92565b95945050505050565b600080fd5b6000601f19601f8301169050919050565b610bca82610bb0565b810181811067ffffffffffffffff82111715610be957610be8610a34565b5b80604052505050565b6000610bfc610961565b9050610c088282610bc1565b919050565b600067ffffffffffffffff821115610c2857610c27610a34565b5b602082029050602081019050919050565b600080fd5b600081519050610c4d8161097f565b92915050565b6000610c66610c6184610c0d565b610bf2565b90508083825260208201905060208402830185811115610c8957610c88610c39565b5b835b81811015610cb25780610c9e8882610c3e565b845260208401935050602081019050610c8b565b5050509392505050565b600082601f830112610cd157610cd0610bab565b5b8151610ce1848260208601610c53565b91505092915050565b600060208284031215610d0057610cff61096b565b5b600082015167ffffffffffffffff811115610d1e57610d1d610970565b5b610d2a84828501610cbc565b91505092915050565b6000819050919050565b6000819050919050565b6000610d62610d5d610d5884610d33565b610d3d565b610975565b9050919050565b610d7281610d47565b82525050565b600060c082019050610d8d6000830189610a0a565b610d9a6020830188610a92565b610da76040830187610d69565b610db46060830186610d69565b610dc16080830185610a0a565b610dce60a0830184610a92565b979650505050505050565b600080600060608486031215610df257610df161096b565b5b6000610e0086828701610c3e565b9350506020610e1186828701610c3e565b9250506040610e2286828701610c3e565b9150509250925092565b6000606082019050610e416000830186610a0a565b610e4e6020830185610a0a565b610e5b6040830184610a92565b949350505050565b6000604082019050610e786000830185610a0a565b610e856020830184610a0a565b9392505050565b600060208284031215610ea257610ea161096b565b5b6000610eb084828501610c3e565b91505092915050565b600082825260208201905092915050565b7f5361666545524332303a20617070726f76652066726f6d206e6f6e2d7a65726f60008201527f20746f206e6f6e2d7a65726f20616c6c6f77616e636500000000000000000000602082015250565b6000610f26603683610eb9565b9150610f3182610eca565b604082019050919050565b60006020820190508181036000830152610f5581610f19565b9050919050565b6000604082019050610f716000830185610a0a565b610f7e6020830184610a92565b9392505050565b60008115159050919050565b610f9a81610f85565b8114610fa557600080fd5b50565b600081519050610fb781610f91565b92915050565b600060208284031215610fd357610fd261096b565b5b6000610fe184828501610fa8565b91505092915050565b7f5361666545524332303a204552433230206f7065726174696f6e20646964206e60008201527f6f74207375636365656400000000000000000000000000000000000000000000602082015250565b6000611046602a83610eb9565b915061105182610fea565b604082019050919050565b6000602082019050818103600083015261107581611039565b9050919050565b7f416464726573733a20696e73756666696369656e742062616c616e636520666f60008201527f722063616c6c0000000000000000000000000000000000000000000000000000602082015250565b60006110d8602683610eb9565b91506110e38261107c565b604082019050919050565b60006020820190508181036000830152611107816110cb565b9050919050565b7f416464726573733a2063616c6c20746f206e6f6e2d636f6e7472616374000000600082015250565b6000611144601d83610eb9565b915061114f8261110e565b602082019050919050565b6000602082019050818103600083015261117381611137565b9050919050565b600081519050919050565b600081905092915050565b60005b838110156111ae578082015181840152602081019050611193565b838111156111bd576000848401525b50505050565b60006111ce8261117a565b6111d88185611185565b93506111e8818560208601611190565b80840191505092915050565b600061120082846111c3565b915081905092915050565b600081519050919050565b60006112218261120b565b61122b8185610eb9565b935061123b818560208601611190565b61124481610bb0565b840191505092915050565b600060208201905081810360008301526112698184611216565b90509291505056fea2646970667358221220af5f1d50f4134c12efa1bbb2cab718ad609b4f449150fda276a742d7264cd71364736f6c63430008090033",
  "linkReferences": {},
  "deployedLinkReferences": {}
}