{
  "_format": "hh-sol-artifact-1",
  "contractName": "MasterChef",
  "sourceName": "contracts/MasterChef.sol",
  "abi": [
    {
      "inputs": [
        {
          "internalType": "contract SushiToken",
          "name": "_sushi",
          "type": "address"
        },
        {
          "internalType": "address",
          "name": "_devaddr",
          "type": "address"
        },
        {
          "internalType": "uint256",
          "name": "_sushiPerBlock",
          "type": "uint256"
        },
        {
          "internalType": "uint256",
          "name": "_startBlock",
          "type": "uint256"
        },
        {
          "internalType": "uint256",
          "name": "_bonusEndBlock",
          "type": "uint256"
        }
      ],
      "stateMutability": "nonpayable",
      "type": "constructor"
    },
    {
      "anonymous": false,
      "inputs": [
        {
          "indexed": true,
          "internalType": "address",
          "name": "user",
          "type": "address"
        },
        {
          "indexed": true,
          "internalType": "uint256",
          "name": "pid",
          "type": "uint256"
        },
        {
          "indexed": false,
          "internalType": "uint256",
          "name": "amount",
          "type": "uint256"
        }
      ],
      "name": "Deposit",
      "type": "event"
    },
    {
      "anonymous": false,
      "inputs": [
        {
          "indexed": true,
          "internalType": "address",
          "name": "user",
          "type": "address"
        },
        {
          "indexed": true,
          "internalType": "uint256",
          "name": "pid",
          "type": "uint256"
        },
        {
          "indexed": false,
          "internalType": "uint256",
          "name": "amount",
          "type": "uint256"
        }
      ],
      "name": "EmergencyWithdraw",
      "type": "event"
    },
    {
      "anonymous": false,
      "inputs": [
        {
          "indexed": true,
          "internalType": "address",
          "name": "previousOwner",
          "type": "address"
        },
        {
          "indexed": true,
          "internalType": "address",
          "name": "newOwner",
          "type": "address"
        }
      ],
      "name": "OwnershipTransferred",
      "type": "event"
    },
    {
      "anonymous": false,
      "inputs": [
        {
          "indexed": true,
          "internalType": "address",
          "name": "user",
          "type": "address"
        },
        {
          "indexed": true,
          "internalType": "uint256",
          "name": "pid",
          "type": "uint256"
        },
        {
          "indexed": false,
          "internalType": "uint256",
          "name": "amount",
          "type": "uint256"
        }
      ],
      "name": "Withdraw",
      "type": "event"
    },
    {
      "inputs": [],
      "name": "BONUS_MULTIPLIER",
      "outputs": [
        {
          "internalType": "uint256",
          "name": "",
          "type": "uint256"
        }
      ],
      "stateMutability": "view",
      "type": "function"
    },
    {
      "inputs": [
        {
          "internalType": "uint256",
          "name": "_allocPoint",
          "type": "uint256"
        },
        {
          "internalType": "contract IERC20",
          "name": "_lpToken",
          "type": "address"
        },
        {
          "internalType": "bool",
          "name": "_withUpdate",
          "type": "bool"
        }
      ],
      "name": "add",
      "outputs": [],
      "stateMutability": "nonpayable",
      "type": "function"
    },
    {
      "inputs": [],
      "name": "bonusEndBlock",
      "outputs": [
        {
          "internalType": "uint256",
          "name": "",
          "type": "uint256"
        }
      ],
      "stateMutability": "view",
      "type": "function"
    },
    {
      "inputs": [
        {
          "internalType": "uint256",
          "name": "_pid",
          "type": "uint256"
        },
        {
          "internalType": "uint256",
          "name": "_amount",
          "type": "uint256"
        }
      ],
      "name": "deposit",
      "outputs": [],
      "stateMutability": "nonpayable",
      "type": "function"
    },
    {
      "inputs": [
        {
          "internalType": "address",
          "name": "_devaddr",
          "type": "address"
        }
      ],
      "name": "dev",
      "outputs": [],
      "stateMutability": "nonpayable",
      "type": "function"
    },
    {
      "inputs": [],
      "name": "devaddr",
      "outputs": [
        {
          "internalType": "address",
          "name": "",
          "type": "address"
        }
      ],
      "stateMutability": "view",
      "type": "function"
    },
    {
      "inputs": [
        {
          "internalType": "uint256",
          "name": "_pid",
          "type": "uint256"
        }
      ],
      "name": "emergencyWithdraw",
      "outputs": [],
      "stateMutability": "nonpayable",
      "type": "function"
    },
    {
      "inputs": [
        {
          "internalType": "uint256",
          "name": "_from",
          "type": "uint256"
        },
        {
          "internalType": "uint256",
          "name": "_to",
          "type": "uint256"
        }
      ],
      "name": "getMultiplier",
      "outputs": [
        {
          "internalType": "uint256",
          "name": "",
          "type": "uint256"
        }
      ],
      "stateMutability": "view",
      "type": "function"
    },
    {
      "inputs": [],
      "name": "massUpdatePools",
      "outputs": [],
      "stateMutability": "nonpayable",
      "type": "function"
    },
    {
      "inputs": [
        {
          "internalType": "uint256",
          "name": "_pid",
          "type": "uint256"
        }
      ],
      "name": "migrate",
      "outputs": [],
      "stateMutability": "nonpayable",
      "type": "function"
    },
    {
      "inputs": [],
      "name": "migrator",
      "outputs": [
        {
          "internalType": "contract IMigratorChef",
          "name": "",
          "type": "address"
        }
      ],
      "stateMutability": "view",
      "type": "function"
    },
    {
      "inputs": [],
      "name": "owner",
      "outputs": [
        {
          "internalType": "address",
          "name": "",
          "type": "address"
        }
      ],
      "stateMutability": "view",
      "type": "function"
    },
    {
      "inputs": [
        {
          "internalType": "uint256",
          "name": "_pid",
          "type": "uint256"
        },
        {
          "internalType": "address",
          "name": "_user",
          "type": "address"
        }
      ],
      "name": "pendingSushi",
      "outputs": [
        {
          "internalType": "uint256",
          "name": "",
          "type": "uint256"
        }
      ],
      "stateMutability": "view",
      "type": "function"
    },
    {
      "inputs": [
        {
          "internalType": "uint256",
          "name": "",
          "type": "uint256"
        }
      ],
      "name": "poolInfo",
      "outputs": [
        {
          "internalType": "contract IERC20",
          "name": "lpToken",
          "type": "address"
        },
        {
          "internalType": "uint256",
          "name": "allocPoint",
          "type": "uint256"
        },
        {
          "internalType": "uint256",
          "name": "lastRewardBlock",
          "type": "uint256"
        },
        {
          "internalType": "uint256",
          "name": "accSushiPerShare",
          "type": "uint256"
        }
      ],
      "stateMutability": "view",
      "type": "function"
    },
    {
      "inputs": [],
      "name": "poolLength",
      "outputs": [
        {
          "internalType": "uint256",
          "name": "",
          "type": "uint256"
        }
      ],
      "stateMutability": "view",
      "type": "function"
    },
    {
      "inputs": [],
      "name": "renounceOwnership",
      "outputs": [],
      "stateMutability": "nonpayable",
      "type": "function"
    },
    {
      "inputs": [
        {
          "internalType": "uint256",
          "name": "_pid",
          "type": "uint256"
        },
        {
          "internalType": "uint256",
          "name": "_allocPoint",
          "type": "uint256"
        },
        {
          "internalType": "bool",
          "name": "_withUpdate",
          "type": "bool"
        }
      ],
      "name": "set",
      "outputs": [],
      "stateMutability": "nonpayable",
      "type": "function"
    },
    {
      "inputs": [
        {
          "internalType": "contract IMigratorChef",
          "name": "_migrator",
          "type": "address"
        }
      ],
      "name": "setMigrator",
      "outputs": [],
      "stateMutability": "nonpayable",
      "type": "function"
    },
    {
      "inputs": [],
      "name": "startBlock",
      "outputs": [
        {
          "internalType": "uint256",
          "name": "",
          "type": "uint256"
        }
      ],
      "stateMutability": "view",
      "type": "function"
    },
    {
      "inputs": [],
      "name": "sushi",
      "outputs": [
        {
          "internalType": "contract SushiToken",
          "name": "",
          "type": "address"
        }
      ],
      "stateMutability": "view",
      "type": "function"
    },
    {
      "inputs": [],
      "name": "sushiPerBlock",
      "outputs": [
        {
          "internalType": "uint256",
          "name": "",
          "type": "uint256"
        }
      ],
      "stateMutability": "view",
      "type": "function"
    },
    {
      "inputs": [],
      "name": "totalAllocPoint",
      "outputs": [
        {
          "internalType": "uint256",
          "name": "",
          "type": "uint256"
        }
      ],
      "stateMutability": "view",
      "type": "function"
    },
    {
      "inputs": [
        {
          "internalType": "address",
          "name": "newOwner",
          "type": "address"
        }
      ],
      "name": "transferOwnership",
      "outputs": [],
      "stateMutability": "nonpayable",
      "type": "function"
    },
    {
      "inputs": [
        {
          "internalType": "uint256",
          "name": "_pid",
          "type": "uint256"
        }
      ],
      "name": "updatePool",
      "outputs": [],
      "stateMutability": "nonpayable",
      "type": "function"
    },
    {
      "inputs": [
        {
          "internalType": "uint256",
          "name": "",
          "type": "uint256"
        },
        {
          "internalType": "address",
          "name": "",
          "type": "address"
        }
      ],
      "name": "userInfo",
      "outputs": [
        {
          "internalType": "uint256",
          "name": "amount",
          "type": "uint256"
        },
        {
          "internalType": "uint256",
          "name": "rewardDebt",
          "type": "uint256"
        }
      ],
      "stateMutability": "view",
      "type": "function"
    },
    {
      "inputs": [
        {
          "internalType": "uint256",
          "name": "_pid",
          "type": "uint256"
        },
        {
          "internalType": "uint256",
          "name": "_amount",
          "type": "uint256"
        }
      ],
      "name": "withdraw",
      "outputs": [],
      "stateMutability": "nonpayable",
      "type": "function"
    }
  ],
  "bytecode": "0x608060405260006008553480156200001657600080fd5b50604051620034503803806200345083398181016040528101906200003c9190620002b4565b6200005c62000050620000fe60201b60201c565b6200010660201b60201c565b84600160006101000a81548173ffffffffffffffffffffffffffffffffffffffff021916908373ffffffffffffffffffffffffffffffffffffffff16021790555083600260006101000a81548173ffffffffffffffffffffffffffffffffffffffff021916908373ffffffffffffffffffffffffffffffffffffffff16021790555082600481905550806003819055508160098190555050505050506200033c565b600033905090565b60008060009054906101000a900473ffffffffffffffffffffffffffffffffffffffff169050816000806101000a81548173ffffffffffffffffffffffffffffffffffffffff021916908373ffffffffffffffffffffffffffffffffffffffff1602179055508173ffffffffffffffffffffffffffffffffffffffff168173ffffffffffffffffffffffffffffffffffffffff167f8be0079c531659141344cd1fd0a4f28419497f9722a3daafe3b4186f6b6457e060405160405180910390a35050565b600080fd5b600073ffffffffffffffffffffffffffffffffffffffff82169050919050565b6000620001fc82620001cf565b9050919050565b60006200021082620001ef565b9050919050565b620002228162000203565b81146200022e57600080fd5b50565b600081519050620002428162000217565b92915050565b6200025381620001ef565b81146200025f57600080fd5b50565b600081519050620002738162000248565b92915050565b6000819050919050565b6200028e8162000279565b81146200029a57600080fd5b50565b600081519050620002ae8162000283565b92915050565b600080600080600060a08688031215620002d357620002d2620001ca565b5b6000620002e38882890162000231565b9550506020620002f68882890162000262565b945050604062000309888289016200029d565b93505060606200031c888289016200029d565b92505060806200032f888289016200029d565b9150509295509295909350565b613104806200034c6000396000f3fe608060405234801561001057600080fd5b506004361061018e5760003560e01c8063630b5ba1116100de5780638da5cb5b11610097578063b0bcf42a11610071578063b0bcf42a1461043b578063d49e77cd14610459578063e2bbb15814610477578063f2fde38b146104935761018e565b80638da5cb5b146103bc5780638dbb1e3a146103da57806393f1a40b1461040a5761018e565b8063630b5ba11461033457806364482f791461033e578063715018a61461035a5780637cd07e47146103645780638aa28550146103825780638d88a90e146103a05761018e565b80631eaaa0451161014b578063454b060811610125578063454b0608146102c257806348cd4cb1146102de57806351eb05a6146102fc5780635312ea8e146103185761018e565b80631eaaa0451461026e57806323cf31181461028a578063441a3e70146102a65761018e565b8063081e3eda146101935780630a087903146101b15780631526fe27146101cf57806317caf6f114610202578063195426ec146102205780631aed655314610250575b600080fd5b61019b6104af565b6040516101a89190612316565b60405180910390f35b6101b96104bc565b6040516101c691906123b0565b60405180910390f35b6101e960048036038101906101e491906123fc565b6104e2565b6040516101f9949392919061244a565b60405180910390f35b61020a610542565b6040516102179190612316565b60405180910390f35b61023a600480360381019061023591906124cd565b610548565b6040516102479190612316565b60405180910390f35b61025861077c565b6040516102659190612316565b60405180910390f35b61028860048036038101906102839190612583565b610782565b005b6102a4600480360381019061029f9190612614565b61090f565b005b6102c060048036038101906102bb9190612641565b6109cf565b005b6102dc60048036038101906102d791906123fc565b610bed565b005b6102e6610f6d565b6040516102f39190612316565b60405180910390f35b610316600480360381019061031191906123fc565b610f73565b005b610332600480360381019061032d91906123fc565b6112b7565b005b61033c6113f0565b005b61035860048036038101906103539190612681565b611423565b005b61036261152f565b005b61036c6115b7565b60405161037991906126f5565b60405180910390f35b61038a6115dd565b6040516103979190612316565b60405180910390f35b6103ba60048036038101906103b59190612710565b6115e2565b005b6103c46116b6565b6040516103d1919061274c565b60405180910390f35b6103f460048036038101906103ef9190612641565b6116df565b6040516104019190612316565b60405180910390f35b610424600480360381019061041f91906124cd565b611791565b604051610432929190612767565b60405180910390f35b6104436117c2565b6040516104509190612316565b60405180910390f35b6104616117c8565b60405161046e919061274c565b60405180910390f35b610491600480360381019061048c9190612641565b6117ee565b005b6104ad60048036038101906104a89190612710565b6119d5565b005b6000600680549050905090565b600160009054906101000a900473ffffffffffffffffffffffffffffffffffffffff1681565b600681815481106104f257600080fd5b90600052602060002090600402016000915090508060000160009054906101000a900473ffffffffffffffffffffffffffffffffffffffff16908060010154908060020154908060030154905084565b60085481565b6000806006848154811061055f5761055e612790565b5b9060005260206000209060040201905060006007600086815260200190815260200160002060008573ffffffffffffffffffffffffffffffffffffffff1673ffffffffffffffffffffffffffffffffffffffff168152602001908152602001600020905060008260030154905060008360000160009054906101000a900473ffffffffffffffffffffffffffffffffffffffff1673ffffffffffffffffffffffffffffffffffffffff166370a08231306040518263ffffffff1660e01b815260040161062b919061274c565b60206040518083038186803b15801561064357600080fd5b505afa158015610657573d6000803e3d6000fd5b505050506040513d601f19601f8201168201806040525081019061067b91906127d4565b9050836002015443118015610691575060008114155b1561072c5760006106a68560020154436116df565b905060006106e96008546106db88600101546106cd60045487611acd90919063ffffffff16565b611acd90919063ffffffff16565b611ae390919063ffffffff16565b90506107276107188461070a64e8d4a5100085611acd90919063ffffffff16565b611ae390919063ffffffff16565b85611af990919063ffffffff16565b935050505b610770836001015461076264e8d4a51000610754868860000154611acd90919063ffffffff16565b611ae390919063ffffffff16565b611b0f90919063ffffffff16565b94505050505092915050565b60035481565b61078a611b25565b73ffffffffffffffffffffffffffffffffffffffff166107a86116b6565b73ffffffffffffffffffffffffffffffffffffffff16146107fe576040517f08c379a00000000000000000000000000000000000000000000000000000000081526004016107f59061285e565b60405180910390fd5b801561080d5761080c6113f0565b5b6000600954431161082057600954610822565b435b905061083984600854611af990919063ffffffff16565b600881905550600660405180608001604052808573ffffffffffffffffffffffffffffffffffffffff1681526020018681526020018381526020016000815250908060018154018082558091505060019003906000526020600020906004020160009091909190915060008201518160000160006101000a81548173ffffffffffffffffffffffffffffffffffffffff021916908373ffffffffffffffffffffffffffffffffffffffff160217905550602082015181600101556040820151816002015560608201518160030155505050505050565b610917611b25565b73ffffffffffffffffffffffffffffffffffffffff166109356116b6565b73ffffffffffffffffffffffffffffffffffffffff161461098b576040517f08c379a00000000000000000000000000000000000000000000000000000000081526004016109829061285e565b60405180910390fd5b80600560006101000a81548173ffffffffffffffffffffffffffffffffffffffff021916908373ffffffffffffffffffffffffffffffffffffffff16021790555050565b6000600683815481106109e5576109e4612790565b5b9060005260206000209060040201905060006007600085815260200190815260200160002060003373ffffffffffffffffffffffffffffffffffffffff1673ffffffffffffffffffffffffffffffffffffffff16815260200190815260200160002090508281600001541015610a90576040517f08c379a0000000000000000000000000000000000000000000000000000000008152600401610a87906128ca565b60405180910390fd5b610a9984610f73565b6000610ae38260010154610ad564e8d4a51000610ac787600301548760000154611acd90919063ffffffff16565b611ae390919063ffffffff16565b611b0f90919063ffffffff16565b9050610aef3382611b2d565b610b06848360000154611b0f90919063ffffffff16565b8260000181905550610b4064e8d4a51000610b3285600301548560000154611acd90919063ffffffff16565b611ae390919063ffffffff16565b8260010181905550610b9733858560000160009054906101000a900473ffffffffffffffffffffffffffffffffffffffff1673ffffffffffffffffffffffffffffffffffffffff16611d4f9092919063ffffffff16565b843373ffffffffffffffffffffffffffffffffffffffff167ff279e6a1f5e320cca91135676d9cb6e44ca8a08c0b88342bcdb1144f6511b56886604051610bde9190612316565b60405180910390a35050505050565b600073ffffffffffffffffffffffffffffffffffffffff16600560009054906101000a900473ffffffffffffffffffffffffffffffffffffffff1673ffffffffffffffffffffffffffffffffffffffff161415610c7f576040517f08c379a0000000000000000000000000000000000000000000000000000000008152600401610c7690612936565b60405180910390fd5b600060068281548110610c9557610c94612790565b5b9060005260206000209060040201905060008160000160009054906101000a900473ffffffffffffffffffffffffffffffffffffffff16905060008173ffffffffffffffffffffffffffffffffffffffff166370a08231306040518263ffffffff1660e01b8152600401610d09919061274c565b60206040518083038186803b158015610d2157600080fd5b505afa158015610d35573d6000803e3d6000fd5b505050506040513d601f19601f82011682018060405250810190610d5991906127d4565b9050610da8600560009054906101000a900473ffffffffffffffffffffffffffffffffffffffff16828473ffffffffffffffffffffffffffffffffffffffff16611dd59092919063ffffffff16565b6000600560009054906101000a900473ffffffffffffffffffffffffffffffffffffffff1673ffffffffffffffffffffffffffffffffffffffff1663ce5494bb846040518263ffffffff1660e01b8152600401610e059190612956565b602060405180830381600087803b158015610e1f57600080fd5b505af1158015610e33573d6000803e3d6000fd5b505050506040513d601f19601f82011682018060405250810190610e579190612986565b90508073ffffffffffffffffffffffffffffffffffffffff166370a08231306040518263ffffffff1660e01b8152600401610e92919061274c565b60206040518083038186803b158015610eaa57600080fd5b505afa158015610ebe573d6000803e3d6000fd5b505050506040513d601f19601f82011682018060405250810190610ee291906127d4565b8214610f23576040517f08c379a0000000000000000000000000000000000000000000000000000000008152600401610f1a906129ff565b60405180910390fd5b808460000160006101000a81548173ffffffffffffffffffffffffffffffffffffffff021916908373ffffffffffffffffffffffffffffffffffffffff1602179055505050505050565b60095481565b600060068281548110610f8957610f88612790565b5b9060005260206000209060040201905080600201544311610faa57506112b4565b60008160000160009054906101000a900473ffffffffffffffffffffffffffffffffffffffff1673ffffffffffffffffffffffffffffffffffffffff166370a08231306040518263ffffffff1660e01b8152600401611009919061274c565b60206040518083038186803b15801561102157600080fd5b505afa158015611035573d6000803e3d6000fd5b505050506040513d601f19601f8201168201806040525081019061105991906127d4565b905060008114156110745743826002018190555050506112b4565b60006110848360020154436116df565b905060006110c76008546110b986600101546110ab60045487611acd90919063ffffffff16565b611acd90919063ffffffff16565b611ae390919063ffffffff16565b9050600160009054906101000a900473ffffffffffffffffffffffffffffffffffffffff1673ffffffffffffffffffffffffffffffffffffffff166340c10f19600260009054906101000a900473ffffffffffffffffffffffffffffffffffffffff1661113e600a85611ae390919063ffffffff16565b6040518363ffffffff1660e01b815260040161115b929190612a1f565b602060405180830381600087803b15801561117557600080fd5b505af1158015611189573d6000803e3d6000fd5b505050506040513d601f19601f820116820180604052508101906111ad9190612a5d565b50600160009054906101000a900473ffffffffffffffffffffffffffffffffffffffff1673ffffffffffffffffffffffffffffffffffffffff166340c10f1930836040518363ffffffff1660e01b815260040161120b929190612a1f565b602060405180830381600087803b15801561122557600080fd5b505af1158015611239573d6000803e3d6000fd5b505050506040513d601f19601f8201168201806040525081019061125d9190612a5d565b5061129e61128b8461127d64e8d4a5100085611acd90919063ffffffff16565b611ae390919063ffffffff16565b8560030154611af990919063ffffffff16565b8460030181905550438460020181905550505050505b50565b6000600682815481106112cd576112cc612790565b5b9060005260206000209060040201905060006007600084815260200190815260200160002060003373ffffffffffffffffffffffffffffffffffffffff1673ffffffffffffffffffffffffffffffffffffffff16815260200190815260200160002090506113843382600001548460000160009054906101000a900473ffffffffffffffffffffffffffffffffffffffff1673ffffffffffffffffffffffffffffffffffffffff16611d4f9092919063ffffffff16565b823373ffffffffffffffffffffffffffffffffffffffff167fbb757047c2b5f3974fe26b7c10f732e7bce710b0952a71082702781e62ae059583600001546040516113cf9190612316565b60405180910390a36000816000018190555060008160010181905550505050565b6000600680549050905060005b8181101561141f5761140e81610f73565b8061141890612ab9565b90506113fd565b5050565b61142b611b25565b73ffffffffffffffffffffffffffffffffffffffff166114496116b6565b73ffffffffffffffffffffffffffffffffffffffff161461149f576040517f08c379a00000000000000000000000000000000000000000000000000000000081526004016114969061285e565b60405180910390fd5b80156114ae576114ad6113f0565b5b6114fa826114ec600686815481106114c9576114c8612790565b5b906000526020600020906004020160010154600854611b0f90919063ffffffff16565b611af990919063ffffffff16565b600881905550816006848154811061151557611514612790565b5b906000526020600020906004020160010181905550505050565b611537611b25565b73ffffffffffffffffffffffffffffffffffffffff166115556116b6565b73ffffffffffffffffffffffffffffffffffffffff16146115ab576040517f08c379a00000000000000000000000000000000000000000000000000000000081526004016115a29061285e565b60405180910390fd5b6115b56000611f33565b565b600560009054906101000a900473ffffffffffffffffffffffffffffffffffffffff1681565b600a81565b600260009054906101000a900473ffffffffffffffffffffffffffffffffffffffff1673ffffffffffffffffffffffffffffffffffffffff163373ffffffffffffffffffffffffffffffffffffffff1614611672576040517f08c379a000000000000000000000000000000000000000000000000000000000815260040161166990612b4e565b60405180910390fd5b80600260006101000a81548173ffffffffffffffffffffffffffffffffffffffff021916908373ffffffffffffffffffffffffffffffffffffffff16021790555050565b60008060009054906101000a900473ffffffffffffffffffffffffffffffffffffffff16905090565b6000600354821161171757611710600a6117028585611b0f90919063ffffffff16565b611acd90919063ffffffff16565b905061178b565b600354831061173a576117338383611b0f90919063ffffffff16565b905061178b565b61178861175260035484611b0f90919063ffffffff16565b61177a600a61176c87600354611b0f90919063ffffffff16565b611acd90919063ffffffff16565b611af990919063ffffffff16565b90505b92915050565b6007602052816000526040600020602052806000526040600020600091509150508060000154908060010154905082565b60045481565b600260009054906101000a900473ffffffffffffffffffffffffffffffffffffffff1681565b60006006838154811061180457611803612790565b5b9060005260206000209060040201905060006007600085815260200190815260200160002060003373ffffffffffffffffffffffffffffffffffffffff1673ffffffffffffffffffffffffffffffffffffffff168152602001908152602001600020905061187184610f73565b6000816000015411156118d65760006118c882600101546118ba64e8d4a510006118ac87600301548760000154611acd90919063ffffffff16565b611ae390919063ffffffff16565b611b0f90919063ffffffff16565b90506118d43382611b2d565b505b6119273330858560000160009054906101000a900473ffffffffffffffffffffffffffffffffffffffff1673ffffffffffffffffffffffffffffffffffffffff16611ff7909392919063ffffffff16565b61193e838260000154611af990919063ffffffff16565b816000018190555061197864e8d4a5100061196a84600301548460000154611acd90919063ffffffff16565b611ae390919063ffffffff16565b8160010181905550833373ffffffffffffffffffffffffffffffffffffffff167f90890809c654f11d6e72a28fa60149770a0d11ec6c92319d6ceb2bb0a4ea1a15856040516119c79190612316565b60405180910390a350505050565b6119dd611b25565b73ffffffffffffffffffffffffffffffffffffffff166119fb6116b6565b73ffffffffffffffffffffffffffffffffffffffff1614611a51576040517f08c379a0000000000000000000000000000000000000000000000000000000008152600401611a489061285e565b60405180910390fd5b600073ffffffffffffffffffffffffffffffffffffffff168173ffffffffffffffffffffffffffffffffffffffff161415611ac1576040517f08c379a0000000000000000000000000000000000000000000000000000000008152600401611ab890612be0565b60405180910390fd5b611aca81611f33565b50565b60008183611adb9190612c00565b905092915050565b60008183611af19190612c89565b905092915050565b60008183611b079190612cba565b905092915050565b60008183611b1d9190612d10565b905092915050565b600033905090565b6000600160009054906101000a900473ffffffffffffffffffffffffffffffffffffffff1673ffffffffffffffffffffffffffffffffffffffff166370a08231306040518263ffffffff1660e01b8152600401611b8a919061274c565b60206040518083038186803b158015611ba257600080fd5b505afa158015611bb6573d6000803e3d6000fd5b505050506040513d601f19601f82011682018060405250810190611bda91906127d4565b905080821115611c9957600160009054906101000a900473ffffffffffffffffffffffffffffffffffffffff1673ffffffffffffffffffffffffffffffffffffffff1663a9059cbb84836040518363ffffffff1660e01b8152600401611c41929190612a1f565b602060405180830381600087803b158015611c5b57600080fd5b505af1158015611c6f573d6000803e3d6000fd5b505050506040513d601f19601f82011682018060405250810190611c939190612a5d565b50611d4a565b600160009054906101000a900473ffffffffffffffffffffffffffffffffffffffff1673ffffffffffffffffffffffffffffffffffffffff1663a9059cbb84846040518363ffffffff1660e01b8152600401611cf6929190612a1f565b602060405180830381600087803b158015611d1057600080fd5b505af1158015611d24573d6000803e3d6000fd5b505050506040513d601f19601f82011682018060405250810190611d489190612a5d565b505b505050565b611dd08363a9059cbb60e01b8484604051602401611d6e929190612a1f565b604051602081830303815290604052907bffffffffffffffffffffffffffffffffffffffffffffffffffffffff19166020820180517bffffffffffffffffffffffffffffffffffffffffffffffffffffffff8381831617835250505050612080565b505050565b6000811480611e6e575060008373ffffffffffffffffffffffffffffffffffffffff1663dd62ed3e30856040518363ffffffff1660e01b8152600401611e1c929190612d44565b60206040518083038186803b158015611e3457600080fd5b505afa158015611e48573d6000803e3d6000fd5b505050506040513d601f19601f82011682018060405250810190611e6c91906127d4565b145b611ead576040517f08c379a0000000000000000000000000000000000000000000000000000000008152600401611ea490612ddf565b60405180910390fd5b611f2e8363095ea7b360e01b8484604051602401611ecc929190612a1f565b604051602081830303815290604052907bffffffffffffffffffffffffffffffffffffffffffffffffffffffff19166020820180517bffffffffffffffffffffffffffffffffffffffffffffffffffffffff8381831617835250505050612080565b505050565b60008060009054906101000a900473ffffffffffffffffffffffffffffffffffffffff169050816000806101000a81548173ffffffffffffffffffffffffffffffffffffffff021916908373ffffffffffffffffffffffffffffffffffffffff1602179055508173ffffffffffffffffffffffffffffffffffffffff168173ffffffffffffffffffffffffffffffffffffffff167f8be0079c531659141344cd1fd0a4f28419497f9722a3daafe3b4186f6b6457e060405160405180910390a35050565b61207a846323b872dd60e01b85858560405160240161201893929190612dff565b604051602081830303815290604052907bffffffffffffffffffffffffffffffffffffffffffffffffffffffff19166020820180517bffffffffffffffffffffffffffffffffffffffffffffffffffffffff8381831617835250505050612080565b50505050565b60006120e2826040518060400160405280602081526020017f5361666545524332303a206c6f772d6c6576656c2063616c6c206661696c65648152508573ffffffffffffffffffffffffffffffffffffffff166121479092919063ffffffff16565b905060008151111561214257808060200190518101906121029190612a5d565b612141576040517f08c379a000000000000000000000000000000000000000000000000000000000815260040161213890612ea8565b60405180910390fd5b5b505050565b6060612156848460008561215f565b90509392505050565b6060824710156121a4576040517f08c379a000000000000000000000000000000000000000000000000000000000815260040161219b90612f3a565b60405180910390fd5b6121ad85612273565b6121ec576040517f08c379a00000000000000000000000000000000000000000000000000000000081526004016121e390612fa6565b60405180910390fd5b6000808673ffffffffffffffffffffffffffffffffffffffff1685876040516122159190613040565b60006040518083038185875af1925050503d8060008114612252576040519150601f19603f3d011682016040523d82523d6000602084013e612257565b606091505b5091509150612267828286612296565b92505050949350505050565b6000808273ffffffffffffffffffffffffffffffffffffffff163b119050919050565b606083156122a6578290506122f6565b6000835111156122b95782518084602001fd5b816040517f08c379a00000000000000000000000000000000000000000000000000000000081526004016122ed91906130ac565b60405180910390fd5b9392505050565b6000819050919050565b612310816122fd565b82525050565b600060208201905061232b6000830184612307565b92915050565b600073ffffffffffffffffffffffffffffffffffffffff82169050919050565b6000819050919050565b600061237661237161236c84612331565b612351565b612331565b9050919050565b60006123888261235b565b9050919050565b600061239a8261237d565b9050919050565b6123aa8161238f565b82525050565b60006020820190506123c560008301846123a1565b92915050565b600080fd5b6123d9816122fd565b81146123e457600080fd5b50565b6000813590506123f6816123d0565b92915050565b600060208284031215612412576124116123cb565b5b6000612420848285016123e7565b91505092915050565b60006124348261237d565b9050919050565b61244481612429565b82525050565b600060808201905061245f600083018761243b565b61246c6020830186612307565b6124796040830185612307565b6124866060830184612307565b95945050505050565b600061249a82612331565b9050919050565b6124aa8161248f565b81146124b557600080fd5b50565b6000813590506124c7816124a1565b92915050565b600080604083850312156124e4576124e36123cb565b5b60006124f2858286016123e7565b9250506020612503858286016124b8565b9150509250929050565b60006125188261248f565b9050919050565b6125288161250d565b811461253357600080fd5b50565b6000813590506125458161251f565b92915050565b60008115159050919050565b6125608161254b565b811461256b57600080fd5b50565b60008135905061257d81612557565b92915050565b60008060006060848603121561259c5761259b6123cb565b5b60006125aa868287016123e7565b93505060206125bb86828701612536565b92505060406125cc8682870161256e565b9150509250925092565b60006125e18261248f565b9050919050565b6125f1816125d6565b81146125fc57600080fd5b50565b60008135905061260e816125e8565b92915050565b60006020828403121561262a576126296123cb565b5b6000612638848285016125ff565b91505092915050565b60008060408385031215612658576126576123cb565b5b6000612666858286016123e7565b9250506020612677858286016123e7565b9150509250929050565b60008060006060848603121561269a576126996123cb565b5b60006126a8868287016123e7565b93505060206126b9868287016123e7565b92505060406126ca8682870161256e565b9150509250925092565b60006126df8261237d565b9050919050565b6126ef816126d4565b82525050565b600060208201905061270a60008301846126e6565b92915050565b600060208284031215612726576127256123cb565b5b6000612734848285016124b8565b91505092915050565b6127468161248f565b82525050565b6000602082019050612761600083018461273d565b92915050565b600060408201905061277c6000830185612307565b6127896020830184612307565b9392505050565b7f4e487b7100000000000000000000000000000000000000000000000000000000600052603260045260246000fd5b6000815190506127ce816123d0565b92915050565b6000602082840312156127ea576127e96123cb565b5b60006127f8848285016127bf565b91505092915050565b600082825260208201905092915050565b7f4f776e61626c653a2063616c6c6572206973206e6f7420746865206f776e6572600082015250565b6000612848602083612801565b915061285382612812565b602082019050919050565b600060208201905081810360008301526128778161283b565b9050919050565b7f77697468647261773a206e6f7420676f6f640000000000000000000000000000600082015250565b60006128b4601283612801565b91506128bf8261287e565b602082019050919050565b600060208201905081810360008301526128e3816128a7565b9050919050565b7f6d6967726174653a206e6f206d69677261746f72000000000000000000000000600082015250565b6000612920601483612801565b915061292b826128ea565b602082019050919050565b6000602082019050818103600083015261294f81612913565b9050919050565b600060208201905061296b600083018461243b565b92915050565b6000815190506129808161251f565b92915050565b60006020828403121561299c5761299b6123cb565b5b60006129aa84828501612971565b91505092915050565b7f6d6967726174653a206261640000000000000000000000000000000000000000600082015250565b60006129e9600c83612801565b91506129f4826129b3565b602082019050919050565b60006020820190508181036000830152612a18816129dc565b9050919050565b6000604082019050612a34600083018561273d565b612a416020830184612307565b9392505050565b600081519050612a5781612557565b92915050565b600060208284031215612a7357612a726123cb565b5b6000612a8184828501612a48565b91505092915050565b7f4e487b7100000000000000000000000000000000000000000000000000000000600052601160045260246000fd5b6000612ac4826122fd565b91507fffffffffffffffffffffffffffffffffffffffffffffffffffffffffffffffff821415612af757612af6612a8a565b5b600182019050919050565b7f6465763a207775743f0000000000000000000000000000000000000000000000600082015250565b6000612b38600983612801565b9150612b4382612b02565b602082019050919050565b60006020820190508181036000830152612b6781612b2b565b9050919050565b7f4f776e61626c653a206e6577206f776e657220697320746865207a65726f206160008201527f6464726573730000000000000000000000000000000000000000000000000000602082015250565b6000612bca602683612801565b9150612bd582612b6e565b604082019050919050565b60006020820190508181036000830152612bf981612bbd565b9050919050565b6000612c0b826122fd565b9150612c16836122fd565b9250817fffffffffffffffffffffffffffffffffffffffffffffffffffffffffffffffff0483118215151615612c4f57612c4e612a8a565b5b828202905092915050565b7f4e487b7100000000000000000000000000000000000000000000000000000000600052601260045260246000fd5b6000612c94826122fd565b9150612c9f836122fd565b925082612caf57612cae612c5a565b5b828204905092915050565b6000612cc5826122fd565b9150612cd0836122fd565b9250827fffffffffffffffffffffffffffffffffffffffffffffffffffffffffffffffff03821115612d0557612d04612a8a565b5b828201905092915050565b6000612d1b826122fd565b9150612d26836122fd565b925082821015612d3957612d38612a8a565b5b828203905092915050565b6000604082019050612d59600083018561273d565b612d66602083018461273d565b9392505050565b7f5361666545524332303a20617070726f76652066726f6d206e6f6e2d7a65726f60008201527f20746f206e6f6e2d7a65726f20616c6c6f77616e636500000000000000000000602082015250565b6000612dc9603683612801565b9150612dd482612d6d565b604082019050919050565b60006020820190508181036000830152612df881612dbc565b9050919050565b6000606082019050612e14600083018661273d565b612e21602083018561273d565b612e2e6040830184612307565b949350505050565b7f5361666545524332303a204552433230206f7065726174696f6e20646964206e60008201527f6f74207375636365656400000000000000000000000000000000000000000000602082015250565b6000612e92602a83612801565b9150612e9d82612e36565b604082019050919050565b60006020820190508181036000830152612ec181612e85565b9050919050565b7f416464726573733a20696e73756666696369656e742062616c616e636520666f60008201527f722063616c6c0000000000000000000000000000000000000000000000000000602082015250565b6000612f24602683612801565b9150612f2f82612ec8565b604082019050919050565b60006020820190508181036000830152612f5381612f17565b9050919050565b7f416464726573733a2063616c6c20746f206e6f6e2d636f6e7472616374000000600082015250565b6000612f90601d83612801565b9150612f9b82612f5a565b602082019050919050565b60006020820190508181036000830152612fbf81612f83565b9050919050565b600081519050919050565b600081905092915050565b60005b83811015612ffa578082015181840152602081019050612fdf565b83811115613009576000848401525b50505050565b600061301a82612fc6565b6130248185612fd1565b9350613034818560208601612fdc565b80840191505092915050565b600061304c828461300f565b915081905092915050565b600081519050919050565b6000601f19601f8301169050919050565b600061307e82613057565b6130888185612801565b9350613098818560208601612fdc565b6130a181613062565b840191505092915050565b600060208201905081810360008301526130c68184613073565b90509291505056fea264697066735822122079ad592449573258c6970469d386a63f6a43edc9e6c761c0372188ee00506b3564736f6c63430008090033",
  "linkReferences": {},
  "deployedLinkReferences": {}
}